{
  "_format": "hh-sol-artifact-1",
  "contractName": "CertificateRegistry",
  "sourceName": "contracts/CertificateRegistry.sol",
  "abi": [
    {
      "inputs": [],
      "stateMutability": "nonpayable",
      "type": "constructor"
    },
    {
      "anonymous": false,
      "inputs": [
        {
          "indexed": true,
          "internalType": "address",
          "name": "owner",
          "type": "address"
        },
        {
          "indexed": true,
          "internalType": "address",
          "name": "approved",
          "type": "address"
        },
        {
          "indexed": true,
          "internalType": "uint256",
          "name": "tokenId",
          "type": "uint256"
        }
      ],
      "name": "Approval",
      "type": "event"
    },
    {
      "anonymous": false,
      "inputs": [
        {
          "indexed": true,
          "internalType": "address",
          "name": "owner",
          "type": "address"
        },
        {
          "indexed": true,
          "internalType": "address",
          "name": "operator",
          "type": "address"
        },
        {
          "indexed": false,
          "internalType": "bool",
          "name": "approved",
          "type": "bool"
        }
      ],
      "name": "ApprovalForAll",
      "type": "event"
    },
    {
      "anonymous": false,
      "inputs": [
        {
          "indexed": false,
          "internalType": "address",
          "name": "user",
          "type": "address"
        },
        {
          "indexed": false,
          "internalType": "uint256",
          "name": "serialNumber",
          "type": "uint256"
        }
      ],
      "name": "CertificateApproved",
      "type": "event"
    },
    {
      "anonymous": false,
      "inputs": [
        {
          "indexed": false,
          "internalType": "uint256",
          "name": "tokenId",
          "type": "uint256"
        },
        {
          "indexed": false,
          "internalType": "string",
          "name": "cid",
          "type": "string"
        },
        {
          "indexed": false,
          "internalType": "uint256",
          "name": "date",
          "type": "uint256"
        },
        {
          "indexed": false,
          "internalType": "address",
          "name": "from",
          "type": "address"
        },
        {
          "indexed": false,
          "internalType": "address",
          "name": "to",
          "type": "address"
        }
      ],
      "name": "CertificateNFTCreated",
      "type": "event"
    },
    {
      "anonymous": false,
      "inputs": [
        {
          "indexed": false,
          "internalType": "string",
          "name": "cid",
          "type": "string"
        },
        {
          "indexed": false,
          "internalType": "uint256",
          "name": "date",
          "type": "uint256"
        },
        {
          "indexed": false,
          "internalType": "uint256",
          "name": "price",
          "type": "uint256"
        },
        {
          "indexed": false,
          "internalType": "address",
          "name": "from",
          "type": "address"
        }
      ],
      "name": "CertificateTemplateCreated",
      "type": "event"
    },
    {
      "anonymous": false,
      "inputs": [
        {
          "indexed": true,
          "internalType": "address",
          "name": "from",
          "type": "address"
        },
        {
          "indexed": true,
          "internalType": "address",
          "name": "to",
          "type": "address"
        },
        {
          "indexed": true,
          "internalType": "uint256",
          "name": "tokenId",
          "type": "uint256"
        }
      ],
      "name": "Transfer",
      "type": "event"
    },
    {
      "inputs": [],
      "name": "_nftsid",
      "outputs": [
        {
          "internalType": "uint256",
          "name": "_value",
          "type": "uint256"
        }
      ],
      "stateMutability": "view",
      "type": "function"
    },
    {
      "inputs": [
        {
          "internalType": "string",
          "name": "name",
          "type": "string"
        },
        {
          "internalType": "string",
          "name": "uniName",
          "type": "string"
        },
        {
          "internalType": "string",
          "name": "course",
          "type": "string"
        },
        {
          "internalType": "string",
          "name": "month",
          "type": "string"
        },
        {
          "internalType": "uint256",
          "name": "year",
          "type": "uint256"
        },
        {
          "internalType": "bool",
          "name": "isApproved",
          "type": "bool"
        },
        {
          "internalType": "bool",
          "name": "isApplied",
          "type": "bool"
        },
        {
          "internalType": "address",
          "name": "user",
          "type": "address"
        }
      ],
      "name": "applyForCertificate",
      "outputs": [],
      "stateMutability": "nonpayable",
      "type": "function"
    },
    {
      "inputs": [
        {
          "internalType": "address",
          "name": "to",
          "type": "address"
        },
        {
          "internalType": "uint256",
          "name": "tokenId",
          "type": "uint256"
        }
      ],
      "name": "approve",
      "outputs": [],
      "stateMutability": "nonpayable",
      "type": "function"
    },
    {
      "inputs": [
        {
          "internalType": "bool",
          "name": "isApproved",
          "type": "bool"
        },
        {
          "internalType": "address",
          "name": "user",
          "type": "address"
        }
      ],
      "name": "approveCertificate",
      "outputs": [],
      "stateMutability": "nonpayable",
      "type": "function"
    },
    {
      "inputs": [
        {
          "internalType": "address",
          "name": "owner",
          "type": "address"
        }
      ],
      "name": "balanceOf",
      "outputs": [
        {
          "internalType": "uint256",
          "name": "",
          "type": "uint256"
        }
      ],
      "stateMutability": "view",
      "type": "function"
    },
    {
      "inputs": [
        {
          "internalType": "string",
          "name": "",
          "type": "string"
        }
      ],
      "name": "certificateTemplateList",
      "outputs": [
        {
          "internalType": "string",
          "name": "cid",
          "type": "string"
        },
        {
          "internalType": "uint256",
          "name": "date",
          "type": "uint256"
        },
        {
          "internalType": "uint256",
          "name": "price",
          "type": "uint256"
        },
        {
          "internalType": "address",
          "name": "from",
          "type": "address"
        }
      ],
      "stateMutability": "view",
      "type": "function"
    },
    {
      "inputs": [
        {
          "internalType": "address",
          "name": "",
          "type": "address"
        }
      ],
      "name": "certificates",
      "outputs": [
        {
          "internalType": "string",
          "name": "name",
          "type": "string"
        },
        {
          "internalType": "string",
          "name": "uniName",
          "type": "string"
        },
        {
          "internalType": "string",
          "name": "month",
          "type": "string"
        },
        {
          "internalType": "string",
          "name": "course",
          "type": "string"
        },
        {
          "internalType": "uint256",
          "name": "year",
          "type": "uint256"
        },
        {
          "internalType": "bool",
          "name": "isApproved",
          "type": "bool"
        },
        {
          "internalType": "bool",
          "name": "isApplied",
          "type": "bool"
        },
        {
          "internalType": "address",
          "name": "user",
          "type": "address"
        }
      ],
      "stateMutability": "view",
      "type": "function"
    },
    {
      "inputs": [
        {
          "internalType": "string",
          "name": "_cid",
          "type": "string"
        },
        {
          "internalType": "uint256",
          "name": "_price",
          "type": "uint256"
        }
      ],
      "name": "createCertificateTemplate",
      "outputs": [],
      "stateMutability": "nonpayable",
      "type": "function"
    },
    {
      "inputs": [
        {
          "internalType": "uint256",
          "name": "tokenId",
          "type": "uint256"
        }
      ],
      "name": "getApproved",
      "outputs": [
        {
          "internalType": "address",
          "name": "",
          "type": "address"
        }
      ],
      "stateMutability": "view",
      "type": "function"
    },
    {
      "inputs": [],
      "name": "getCertificateInfo",
      "outputs": [
        {
          "internalType": "string",
          "name": "",
          "type": "string"
        },
        {
          "internalType": "string",
          "name": "",
          "type": "string"
        },
        {
          "internalType": "string",
          "name": "",
          "type": "string"
        },
        {
          "internalType": "string",
          "name": "",
          "type": "string"
        },
        {
          "internalType": "uint256",
          "name": "",
          "type": "uint256"
        },
        {
          "internalType": "bool",
          "name": "",
          "type": "bool"
        },
        {
          "internalType": "bool",
          "name": "",
          "type": "bool"
        },
        {
          "internalType": "address",
          "name": "",
          "type": "address"
        }
      ],
      "stateMutability": "view",
      "type": "function"
    },
    {
      "inputs": [
        {
          "internalType": "address",
          "name": "owner",
          "type": "address"
        },
        {
          "internalType": "address",
          "name": "operator",
          "type": "address"
        }
      ],
      "name": "isApprovedForAll",
      "outputs": [
        {
          "internalType": "bool",
          "name": "",
          "type": "bool"
        }
      ],
      "stateMutability": "view",
      "type": "function"
    },
    {
      "inputs": [
        {
          "internalType": "string",
          "name": "_cid",
          "type": "string"
        },
        {
          "internalType": "address",
          "name": "_to",
          "type": "address"
        }
      ],
      "name": "mintCertificateNFT",
      "outputs": [],
      "stateMutability": "nonpayable",
      "type": "function"
    },
    {
      "inputs": [],
      "name": "name",
      "outputs": [
        {
          "internalType": "string",
          "name": "",
          "type": "string"
        }
      ],
      "stateMutability": "view",
      "type": "function"
    },
    {
      "inputs": [
        {
          "internalType": "uint256",
          "name": "tokenId",
          "type": "uint256"
        }
      ],
      "name": "ownerOf",
      "outputs": [
        {
          "internalType": "address",
          "name": "",
          "type": "address"
        }
      ],
      "stateMutability": "view",
      "type": "function"
    },
    {
      "inputs": [
        {
          "internalType": "address",
          "name": "from",
          "type": "address"
        },
        {
          "internalType": "address",
          "name": "to",
          "type": "address"
        },
        {
          "internalType": "uint256",
          "name": "tokenId",
          "type": "uint256"
        }
      ],
      "name": "safeTransferFrom",
      "outputs": [],
      "stateMutability": "nonpayable",
      "type": "function"
    },
    {
      "inputs": [
        {
          "internalType": "address",
          "name": "from",
          "type": "address"
        },
        {
          "internalType": "address",
          "name": "to",
          "type": "address"
        },
        {
          "internalType": "uint256",
          "name": "tokenId",
          "type": "uint256"
        },
        {
          "internalType": "bytes",
          "name": "data",
          "type": "bytes"
        }
      ],
      "name": "safeTransferFrom",
      "outputs": [],
      "stateMutability": "nonpayable",
      "type": "function"
    },
    {
      "inputs": [
        {
          "internalType": "address",
          "name": "operator",
          "type": "address"
        },
        {
          "internalType": "bool",
          "name": "approved",
          "type": "bool"
        }
      ],
      "name": "setApprovalForAll",
      "outputs": [],
      "stateMutability": "nonpayable",
      "type": "function"
    },
    {
      "inputs": [
        {
          "internalType": "bytes4",
          "name": "interfaceId",
          "type": "bytes4"
        }
      ],
      "name": "supportsInterface",
      "outputs": [
        {
          "internalType": "bool",
          "name": "",
          "type": "bool"
        }
      ],
      "stateMutability": "view",
      "type": "function"
    },
    {
      "inputs": [],
      "name": "symbol",
      "outputs": [
        {
          "internalType": "string",
          "name": "",
          "type": "string"
        }
      ],
      "stateMutability": "view",
      "type": "function"
    },
    {
      "inputs": [
        {
          "internalType": "uint256",
          "name": "tokenId",
          "type": "uint256"
        }
      ],
      "name": "tokenURI",
      "outputs": [
        {
          "internalType": "string",
          "name": "",
          "type": "string"
        }
      ],
      "stateMutability": "view",
      "type": "function"
    },
    {
      "inputs": [
        {
          "internalType": "address",
          "name": "from",
          "type": "address"
        },
        {
          "internalType": "address",
          "name": "to",
          "type": "address"
        },
        {
          "internalType": "uint256",
          "name": "tokenId",
          "type": "uint256"
        }
      ],
      "name": "transferFrom",
      "outputs": [],
      "stateMutability": "nonpayable",
      "type": "function"
    }
  ],
  "bytecode": "0x60806040523480156200001157600080fd5b506040518060400160405280601181526020017f4365727469666963617465204d616b65720000000000000000000000000000008152506040518060400160405280600381526020017f434d520000000000000000000000000000000000000000000000000000000000815250816000908051906020019062000096929190620000b8565b508060019080519060200190620000af929190620000b8565b505050620001cd565b828054620000c69062000168565b90600052602060002090601f016020900481019282620000ea576000855562000136565b82601f106200010557805160ff191683800117855562000136565b8280016001018555821562000136579182015b828111156200013557825182559160200191906001019062000118565b5b50905062000145919062000149565b5090565b5b80821115620001645760008160009055506001016200014a565b5090565b600060028204905060018216806200018157607f821691505b602082108114156200019857620001976200019e565b5b50919050565b7f4e487b7100000000000000000000000000000000000000000000000000000000600052602260045260246000fd5b61395780620001dd6000396000f3fe608060405234801561001057600080fd5b50600436106101365760003560e01c806370a08231116100b8578063bdf2a6211161007c578063bdf2a62114610350578063c274e57714610375578063c87b56dd146103a8578063e53a5245146103d8578063e985e9c5146103f4578063fd6c8a541461042457610136565b806370a08231146102ac57806395d89b41146102dc5780639a30b2ba146102fa578063a22cb46514610318578063b88d4fde1461033457610136565b80631222d655116100ff5780631222d6551461020c57806323b872dd1461022857806342842e0e146102445780636352211e146102605780636ccbe1f51461029057610136565b806216e5261461013b57806301ffc9a71461017257806306fdde03146101a2578063081812fc146101c0578063095ea7b3146101f0575b600080fd5b61015560048036038101906101509190612817565b610440565b604051610169989796959493929190612fc3565b60405180910390f35b61018c600480360381019061018791906129fa565b6106e2565b6040516101999190612f86565b60405180910390f35b6101aa6107c4565b6040516101b79190612fa1565b60405180910390f35b6101da60048036038101906101d59190612c47565b610856565b6040516101e79190612f1f565b60405180910390f35b61020a60048036038101906102059190612982565b61089c565b005b61022660048036038101906102219190612a8d565b6109b4565b005b610242600480360381019061023d919061287c565b610a1a565b005b61025e6004803603810190610259919061287c565b610a7a565b005b61027a60048036038101906102759190612c47565b610a9a565b6040516102879190612f1f565b60405180910390f35b6102aa60048036038101906102a59190612bf3565b610b21565b005b6102c660048036038101906102c19190612817565b610c32565b6040516102d39190613229565b60405180910390f35b6102e4610cea565b6040516102f19190612fa1565b60405180910390f35b610302610d7c565b60405161030f9190613229565b60405180910390f35b610332600480360381019061032d9190612946565b610d88565b005b61034e600480360381019061034991906128cb565b610d9e565b005b610358610e00565b60405161036c989796959493929190612fc3565b60405180910390f35b61038f600480360381019061038a9190612a4c565b6110b4565b60405161039f949392919061305d565b60405180910390f35b6103c260048036038101906103bd9190612c47565b6111a2565b6040516103cf9190612fa1565b60405180910390f35b6103f260048036038101906103ed9190612ae1565b6112b5565b005b61040e60048036038101906104099190612840565b61145f565b60405161041b9190612f86565b60405180910390f35b61043e600480360381019061043991906129be565b6114f3565b005b6009602052806000526040600020600091509050806000018054610463906134a8565b80601f016020809104026020016040519081016040528092919081815260200182805461048f906134a8565b80156104dc5780601f106104b1576101008083540402835291602001916104dc565b820191906000526020600020905b8154815290600101906020018083116104bf57829003601f168201915b5050505050908060010180546104f1906134a8565b80601f016020809104026020016040519081016040528092919081815260200182805461051d906134a8565b801561056a5780601f1061053f5761010080835404028352916020019161056a565b820191906000526020600020905b81548152906001019060200180831161054d57829003601f168201915b50505050509080600201805461057f906134a8565b80601f01602080910402602001604051908101604052809291908181526020018280546105ab906134a8565b80156105f85780601f106105cd576101008083540402835291602001916105f8565b820191906000526020600020905b8154815290600101906020018083116105db57829003601f168201915b50505050509080600301805461060d906134a8565b80601f0160208091040260200160405190810160405280929190818152602001828054610639906134a8565b80156106865780601f1061065b57610100808354040283529160200191610686565b820191906000526020600020905b81548152906001019060200180831161066957829003601f168201915b5050505050908060040154908060050160009054906101000a900460ff16908060050160019054906101000a900460ff16908060050160029054906101000a900473ffffffffffffffffffffffffffffffffffffffff16905088565b60007f80ac58cd000000000000000000000000000000000000000000000000000000007bffffffffffffffffffffffffffffffffffffffffffffffffffffffff1916827bffffffffffffffffffffffffffffffffffffffffffffffffffffffff191614806107ad57507f5b5e139f000000000000000000000000000000000000000000000000000000007bffffffffffffffffffffffffffffffffffffffffffffffffffffffff1916827bffffffffffffffffffffffffffffffffffffffffffffffffffffffff1916145b806107bd57506107bc826115ed565b5b9050919050565b6060600080546107d3906134a8565b80601f01602080910402602001604051908101604052809291908181526020018280546107ff906134a8565b801561084c5780601f106108215761010080835404028352916020019161084c565b820191906000526020600020905b81548152906001019060200180831161082f57829003601f168201915b5050505050905090565b600061086182611657565b6004600083815260200190815260200160002060009054906101000a900473ffffffffffffffffffffffffffffffffffffffff169050919050565b60006108a782610a9a565b90508073ffffffffffffffffffffffffffffffffffffffff168373ffffffffffffffffffffffffffffffffffffffff161415610918576040517f08c379a000000000000000000000000000000000000000000000000000000000815260040161090f906131e9565b60405180910390fd5b8073ffffffffffffffffffffffffffffffffffffffff166109376116a2565b73ffffffffffffffffffffffffffffffffffffffff1614806109665750610965816109606116a2565b61145f565b5b6109a5576040517f08c379a000000000000000000000000000000000000000000000000000000000815260040161099c90613209565b60405180910390fd5b6109af83836116aa565b505050565b6109be6007611763565b60006109ca6007611779565b90506109d68282611787565b7f12d6290038170db7066ddebc8ef8ab3c559c69cf3cbdfa2e8fb481cd52a844d08184423386604051610a0d959493929190613244565b60405180910390a1505050565b610a2b610a256116a2565b826119a5565b610a6a576040517f08c379a0000000000000000000000000000000000000000000000000000000008152600401610a61906130a9565b60405180910390fd5b610a75838383611a3a565b505050565b610a9583838360405180602001604052806000815250610d9e565b505050565b600080610aa683611d34565b9050600073ffffffffffffffffffffffffffffffffffffffff168173ffffffffffffffffffffffffffffffffffffffff161415610b18576040517f08c379a0000000000000000000000000000000000000000000000000000000008152600401610b0f906131c9565b60405180910390fd5b80915050919050565b60405180608001604052808381526020014281526020018281526020013373ffffffffffffffffffffffffffffffffffffffff16815250600883604051610b689190612ee4565b90815260200160405180910390206000820151816000019080519060200190610b9292919061263b565b50602082015181600101556040820151816002015560608201518160030160006101000a81548173ffffffffffffffffffffffffffffffffffffffff021916908373ffffffffffffffffffffffffffffffffffffffff1602179055509050507f3f9a5bc3183aec96a823aa97f139a8952948f4e837243eeedfe6ff7752a5013682428333604051610c26949392919061305d565b60405180910390a15050565b60008073ffffffffffffffffffffffffffffffffffffffff168273ffffffffffffffffffffffffffffffffffffffff161415610ca3576040517f08c379a0000000000000000000000000000000000000000000000000000000008152600401610c9a90613169565b60405180910390fd5b600360008373ffffffffffffffffffffffffffffffffffffffff1673ffffffffffffffffffffffffffffffffffffffff168152602001908152602001600020549050919050565b606060018054610cf9906134a8565b80601f0160208091040260200160405190810160405280929190818152602001828054610d25906134a8565b8015610d725780601f10610d4757610100808354040283529160200191610d72565b820191906000526020600020905b815481529060010190602001808311610d5557829003601f168201915b5050505050905090565b60078060000154905081565b610d9a610d936116a2565b8383611d71565b5050565b610daf610da96116a2565b836119a5565b610dee576040517f08c379a0000000000000000000000000000000000000000000000000000000008152600401610de5906130a9565b60405180910390fd5b610dfa84848484611ede565b50505050565b6060806060806000806000806000600960003373ffffffffffffffffffffffffffffffffffffffff1673ffffffffffffffffffffffffffffffffffffffff16815260200190815260200160002090508060000181600101826003018360020184600401546001600033878054610e75906134a8565b80601f0160208091040260200160405190810160405280929190818152602001828054610ea1906134a8565b8015610eee5780601f10610ec357610100808354040283529160200191610eee565b820191906000526020600020905b815481529060010190602001808311610ed157829003601f168201915b50505050509750868054610f01906134a8565b80601f0160208091040260200160405190810160405280929190818152602001828054610f2d906134a8565b8015610f7a5780601f10610f4f57610100808354040283529160200191610f7a565b820191906000526020600020905b815481529060010190602001808311610f5d57829003601f168201915b50505050509650858054610f8d906134a8565b80601f0160208091040260200160405190810160405280929190818152602001828054610fb9906134a8565b80156110065780601f10610fdb57610100808354040283529160200191611006565b820191906000526020600020905b815481529060010190602001808311610fe957829003601f168201915b50505050509550848054611019906134a8565b80601f0160208091040260200160405190810160405280929190818152602001828054611045906134a8565b80156110925780601f1061106757610100808354040283529160200191611092565b820191906000526020600020905b81548152906001019060200180831161107557829003601f168201915b5050505050945098509850985098509850985098509850509091929394959697565b6008818051602081018201805184825260208301602085012081835280955050505050506000915090508060000180546110ed906134a8565b80601f0160208091040260200160405190810160405280929190818152602001828054611119906134a8565b80156111665780601f1061113b57610100808354040283529160200191611166565b820191906000526020600020905b81548152906001019060200180831161114957829003601f168201915b5050505050908060010154908060020154908060030160009054906101000a900473ffffffffffffffffffffffffffffffffffffffff16905084565b60606111ad82611657565b60006006600084815260200190815260200160002080546111cd906134a8565b80601f01602080910402602001604051908101604052809291908181526020018280546111f9906134a8565b80156112465780601f1061121b57610100808354040283529160200191611246565b820191906000526020600020905b81548152906001019060200180831161122957829003601f168201915b505050505090506000611257611f3a565b905060008151141561126d5781925050506112b0565b6000825111156112a257808260405160200161128a929190612efb565b604051602081830303815290604052925050506112b0565b6112ab84611f51565b925050505b919050565b3390506040518061010001604052808981526020018881526020018781526020018681526020018581526020016000151581526020016001151581526020018273ffffffffffffffffffffffffffffffffffffffff16815250600960003373ffffffffffffffffffffffffffffffffffffffff1673ffffffffffffffffffffffffffffffffffffffff168152602001908152602001600020600082015181600001908051906020019061136992919061263b565b50602082015181600101908051906020019061138692919061263b565b5060408201518160020190805190602001906113a392919061263b565b5060608201518160030190805190602001906113c092919061263b565b506080820151816004015560a08201518160050160006101000a81548160ff02191690831515021790555060c08201518160050160016101000a81548160ff02191690831515021790555060e08201518160050160026101000a81548173ffffffffffffffffffffffffffffffffffffffff021916908373ffffffffffffffffffffffffffffffffffffffff1602179055509050505050505050505050565b6000600560008473ffffffffffffffffffffffffffffffffffffffff1673ffffffffffffffffffffffffffffffffffffffff16815260200190815260200160002060008373ffffffffffffffffffffffffffffffffffffffff1673ffffffffffffffffffffffffffffffffffffffff16815260200190815260200160002060009054906101000a900460ff16905092915050565b6000600960008373ffffffffffffffffffffffffffffffffffffffff1673ffffffffffffffffffffffffffffffffffffffff16815260200190815260200160002090508060050160009054906101000a900460ff1615611588576040517f08c379a000000000000000000000000000000000000000000000000000000000815260040161157f90613189565b60405180910390fd5b60018160050160006101000a81548160ff021916908315150217905550818160050160026101000a81548173ffffffffffffffffffffffffffffffffffffffff021916908373ffffffffffffffffffffffffffffffffffffffff160217905550505050565b60007f01ffc9a7000000000000000000000000000000000000000000000000000000007bffffffffffffffffffffffffffffffffffffffffffffffffffffffff1916827bffffffffffffffffffffffffffffffffffffffffffffffffffffffff1916149050919050565b61166081611fb9565b61169f576040517f08c379a0000000000000000000000000000000000000000000000000000000008152600401611696906131c9565b60405180910390fd5b50565b600033905090565b816004600083815260200190815260200160002060006101000a81548173ffffffffffffffffffffffffffffffffffffffff021916908373ffffffffffffffffffffffffffffffffffffffff160217905550808273ffffffffffffffffffffffffffffffffffffffff1661171d83610a9a565b73ffffffffffffffffffffffffffffffffffffffff167f8c5be1e5ebec7d5bd14f71427d1e84f3dd0314c0f7b2291e5b200ac8c7c3b92560405160405180910390a45050565b6001816000016000828254019250508190555050565b600081600001549050919050565b600073ffffffffffffffffffffffffffffffffffffffff168273ffffffffffffffffffffffffffffffffffffffff1614156117f7576040517f08c379a00000000000000000000000000000000000000000000000000000000081526004016117ee906131a9565b60405180910390fd5b61180081611fb9565b15611840576040517f08c379a000000000000000000000000000000000000000000000000000000000815260040161183790613109565b60405180910390fd5b61184e600083836001611ffa565b61185781611fb9565b15611897576040517f08c379a000000000000000000000000000000000000000000000000000000000815260040161188e90613109565b60405180910390fd5b6001600360008473ffffffffffffffffffffffffffffffffffffffff1673ffffffffffffffffffffffffffffffffffffffff16815260200190815260200160002060008282540192505081905550816002600083815260200190815260200160002060006101000a81548173ffffffffffffffffffffffffffffffffffffffff021916908373ffffffffffffffffffffffffffffffffffffffff160217905550808273ffffffffffffffffffffffffffffffffffffffff16600073ffffffffffffffffffffffffffffffffffffffff167fddf252ad1be2c89b69c2b068fc378daa952ba7f163c4a11628f55a4df523b3ef60405160405180910390a46119a1600083836001612120565b5050565b6000806119b183610a9a565b90508073ffffffffffffffffffffffffffffffffffffffff168473ffffffffffffffffffffffffffffffffffffffff1614806119f357506119f2818561145f565b5b80611a3157508373ffffffffffffffffffffffffffffffffffffffff16611a1984610856565b73ffffffffffffffffffffffffffffffffffffffff16145b91505092915050565b8273ffffffffffffffffffffffffffffffffffffffff16611a5a82610a9a565b73ffffffffffffffffffffffffffffffffffffffff1614611ab0576040517f08c379a0000000000000000000000000000000000000000000000000000000008152600401611aa7906130e9565b60405180910390fd5b600073ffffffffffffffffffffffffffffffffffffffff168273ffffffffffffffffffffffffffffffffffffffff161415611b20576040517f08c379a0000000000000000000000000000000000000000000000000000000008152600401611b1790613129565b60405180910390fd5b611b2d8383836001611ffa565b8273ffffffffffffffffffffffffffffffffffffffff16611b4d82610a9a565b73ffffffffffffffffffffffffffffffffffffffff1614611ba3576040517f08c379a0000000000000000000000000000000000000000000000000000000008152600401611b9a906130e9565b60405180910390fd5b6004600082815260200190815260200160002060006101000a81549073ffffffffffffffffffffffffffffffffffffffff02191690556001600360008573ffffffffffffffffffffffffffffffffffffffff1673ffffffffffffffffffffffffffffffffffffffff168152602001908152602001600020600082825403925050819055506001600360008473ffffffffffffffffffffffffffffffffffffffff1673ffffffffffffffffffffffffffffffffffffffff16815260200190815260200160002060008282540192505081905550816002600083815260200190815260200160002060006101000a81548173ffffffffffffffffffffffffffffffffffffffff021916908373ffffffffffffffffffffffffffffffffffffffff160217905550808273ffffffffffffffffffffffffffffffffffffffff168473ffffffffffffffffffffffffffffffffffffffff167fddf252ad1be2c89b69c2b068fc378daa952ba7f163c4a11628f55a4df523b3ef60405160405180910390a4611d2f8383836001612120565b505050565b60006002600083815260200190815260200160002060009054906101000a900473ffffffffffffffffffffffffffffffffffffffff169050919050565b8173ffffffffffffffffffffffffffffffffffffffff168373ffffffffffffffffffffffffffffffffffffffff161415611de0576040517f08c379a0000000000000000000000000000000000000000000000000000000008152600401611dd790613149565b60405180910390fd5b80600560008573ffffffffffffffffffffffffffffffffffffffff1673ffffffffffffffffffffffffffffffffffffffff16815260200190815260200160002060008473ffffffffffffffffffffffffffffffffffffffff1673ffffffffffffffffffffffffffffffffffffffff16815260200190815260200160002060006101000a81548160ff0219169083151502179055508173ffffffffffffffffffffffffffffffffffffffff168373ffffffffffffffffffffffffffffffffffffffff167f17307eab39ab6107e8899845ad3d59bd9653f200f220920489ca2b5937696c3183604051611ed19190612f86565b60405180910390a3505050565b611ee9848484611a3a565b611ef584848484612126565b611f34576040517f08c379a0000000000000000000000000000000000000000000000000000000008152600401611f2b906130c9565b60405180910390fd5b50505050565b606060405180602001604052806000815250905090565b6060611f5c82611657565b6000611f66611f3a565b90506000815111611f865760405180602001604052806000815250611fb1565b80611f90846122bd565b604051602001611fa1929190612efb565b6040516020818303038152906040525b915050919050565b60008073ffffffffffffffffffffffffffffffffffffffff16611fdb83611d34565b73ffffffffffffffffffffffffffffffffffffffff1614159050919050565b600181111561211a57600073ffffffffffffffffffffffffffffffffffffffff168473ffffffffffffffffffffffffffffffffffffffff161461208e5780600360008673ffffffffffffffffffffffffffffffffffffffff1673ffffffffffffffffffffffffffffffffffffffff168152602001908152602001600020600082825461208691906133be565b925050819055505b600073ffffffffffffffffffffffffffffffffffffffff168373ffffffffffffffffffffffffffffffffffffffff16146121195780600360008573ffffffffffffffffffffffffffffffffffffffff1673ffffffffffffffffffffffffffffffffffffffff16815260200190815260200160002060008282546121119190613368565b925050819055505b5b50505050565b50505050565b60006121478473ffffffffffffffffffffffffffffffffffffffff166123e1565b156122b0578373ffffffffffffffffffffffffffffffffffffffff1663150b7a026121706116a2565b8786866040518563ffffffff1660e01b81526004016121929493929190612f3a565b602060405180830381600087803b1580156121ac57600080fd5b505af19250505080156121dd57506040513d601f19601f820116820180604052508101906121da9190612a23565b60015b612260573d806000811461220d576040519150601f19603f3d011682016040523d82523d6000602084013e612212565b606091505b50600081511415612258576040517f08c379a000000000000000000000000000000000000000000000000000000000815260040161224f906130c9565b60405180910390fd5b805181602001fd5b63150b7a0260e01b7bffffffffffffffffffffffffffffffffffffffffffffffffffffffff1916817bffffffffffffffffffffffffffffffffffffffffffffffffffffffff1916149150506122b5565b600190505b949350505050565b6060600060016122cc84612404565b01905060008167ffffffffffffffff811115612311577f4e487b7100000000000000000000000000000000000000000000000000000000600052604160045260246000fd5b6040519080825280601f01601f1916602001820160405280156123435781602001600182028036833780820191505090505b509050600082602001820190505b6001156123d6578080600190039150507f3031323334353637383961626364656600000000000000000000000000000000600a86061a8153600a85816123c0577f4e487b7100000000000000000000000000000000000000000000000000000000600052601260045260246000fd5b04945060008514156123d1576123d6565b612351565b819350505050919050565b6000808273ffffffffffffffffffffffffffffffffffffffff163b119050919050565b600080600090507a184f03e93ff9f4daa797ed6e38ed64bf6a1f0100000000000000008310612488577a184f03e93ff9f4daa797ed6e38ed64bf6a1f010000000000000000838161247e577f4e487b7100000000000000000000000000000000000000000000000000000000600052601260045260246000fd5b0492506040810190505b6d04ee2d6d415b85acef810000000083106124eb576d04ee2d6d415b85acef810000000083816124e1577f4e487b7100000000000000000000000000000000000000000000000000000000600052601260045260246000fd5b0492506020810190505b662386f26fc10000831061254057662386f26fc100008381612536577f4e487b7100000000000000000000000000000000000000000000000000000000600052601260045260246000fd5b0492506010810190505b6305f5e100831061258f576305f5e1008381612585577f4e487b7100000000000000000000000000000000000000000000000000000000600052601260045260246000fd5b0492506008810190505b61271083106125da5761271083816125d0577f4e487b7100000000000000000000000000000000000000000000000000000000600052601260045260246000fd5b0492506004810190505b606483106126235760648381612619577f4e487b7100000000000000000000000000000000000000000000000000000000600052601260045260246000fd5b0492506002810190505b600a8310612632576001810190505b80915050919050565b828054612647906134a8565b90600052602060002090601f01602090048101928261266957600085556126b0565b82601f1061268257805160ff19168380011785556126b0565b828001600101855582156126b0579182015b828111156126af578251825591602001919060010190612694565b5b5090506126bd91906126c1565b5090565b5b808211156126da5760008160009055506001016126c2565b5090565b60006126f16126ec846132c3565b61329e565b90508281526020810184848401111561270957600080fd5b612714848285613466565b509392505050565b600061272f61272a846132f4565b61329e565b90508281526020810184848401111561274757600080fd5b612752848285613466565b509392505050565b600081359050612769816138c5565b92915050565b60008135905061277e816138dc565b92915050565b600081359050612793816138f3565b92915050565b6000815190506127a8816138f3565b92915050565b600082601f8301126127bf57600080fd5b81356127cf8482602086016126de565b91505092915050565b600082601f8301126127e957600080fd5b81356127f984826020860161271c565b91505092915050565b6000813590506128118161390a565b92915050565b60006020828403121561282957600080fd5b60006128378482850161275a565b91505092915050565b6000806040838503121561285357600080fd5b60006128618582860161275a565b92505060206128728582860161275a565b9150509250929050565b60008060006060848603121561289157600080fd5b600061289f8682870161275a565b93505060206128b08682870161275a565b92505060406128c186828701612802565b9150509250925092565b600080600080608085870312156128e157600080fd5b60006128ef8782880161275a565b94505060206129008782880161275a565b935050604061291187828801612802565b925050606085013567ffffffffffffffff81111561292e57600080fd5b61293a878288016127ae565b91505092959194509250565b6000806040838503121561295957600080fd5b60006129678582860161275a565b92505060206129788582860161276f565b9150509250929050565b6000806040838503121561299557600080fd5b60006129a38582860161275a565b92505060206129b485828601612802565b9150509250929050565b600080604083850312156129d157600080fd5b60006129df8582860161276f565b92505060206129f08582860161275a565b9150509250929050565b600060208284031215612a0c57600080fd5b6000612a1a84828501612784565b91505092915050565b600060208284031215612a3557600080fd5b6000612a4384828501612799565b91505092915050565b600060208284031215612a5e57600080fd5b600082013567ffffffffffffffff811115612a7857600080fd5b612a84848285016127d8565b91505092915050565b60008060408385031215612aa057600080fd5b600083013567ffffffffffffffff811115612aba57600080fd5b612ac6858286016127d8565b9250506020612ad78582860161275a565b9150509250929050565b600080600080600080600080610100898b031215612afe57600080fd5b600089013567ffffffffffffffff811115612b1857600080fd5b612b248b828c016127d8565b985050602089013567ffffffffffffffff811115612b4157600080fd5b612b4d8b828c016127d8565b975050604089013567ffffffffffffffff811115612b6a57600080fd5b612b768b828c016127d8565b965050606089013567ffffffffffffffff811115612b9357600080fd5b612b9f8b828c016127d8565b9550506080612bb08b828c01612802565b94505060a0612bc18b828c0161276f565b93505060c0612bd28b828c0161276f565b92505060e0612be38b828c0161275a565b9150509295985092959890939650565b60008060408385031215612c0657600080fd5b600083013567ffffffffffffffff811115612c2057600080fd5b612c2c858286016127d8565b9250506020612c3d85828601612802565b9150509250929050565b600060208284031215612c5957600080fd5b6000612c6784828501612802565b91505092915050565b612c79816133f2565b82525050565b612c8881613404565b82525050565b6000612c9982613325565b612ca3818561333b565b9350612cb3818560208601613475565b612cbc81613598565b840191505092915050565b6000612cd282613330565b612cdc818561334c565b9350612cec818560208601613475565b612cf581613598565b840191505092915050565b6000612d0b82613330565b612d15818561335d565b9350612d25818560208601613475565b80840191505092915050565b6000612d3e602d8361334c565b9150612d49826135a9565b604082019050919050565b6000612d6160328361334c565b9150612d6c826135f8565b604082019050919050565b6000612d8460258361334c565b9150612d8f82613647565b604082019050919050565b6000612da7601c8361334c565b9150612db282613696565b602082019050919050565b6000612dca60248361334c565b9150612dd5826136bf565b604082019050919050565b6000612ded60198361334c565b9150612df88261370e565b602082019050919050565b6000612e1060298361334c565b9150612e1b82613737565b604082019050919050565b6000612e3360258361334c565b9150612e3e82613786565b604082019050919050565b6000612e5660208361334c565b9150612e61826137d5565b602082019050919050565b6000612e7960188361334c565b9150612e84826137fe565b602082019050919050565b6000612e9c60218361334c565b9150612ea782613827565b604082019050919050565b6000612ebf603d8361334c565b9150612eca82613876565b604082019050919050565b612ede8161345c565b82525050565b6000612ef08284612d00565b915081905092915050565b6000612f078285612d00565b9150612f138284612d00565b91508190509392505050565b6000602082019050612f346000830184612c70565b92915050565b6000608082019050612f4f6000830187612c70565b612f5c6020830186612c70565b612f696040830185612ed5565b8181036060830152612f7b8184612c8e565b905095945050505050565b6000602082019050612f9b6000830184612c7f565b92915050565b60006020820190508181036000830152612fbb8184612cc7565b905092915050565b6000610100820190508181036000830152612fde818b612cc7565b90508181036020830152612ff2818a612cc7565b905081810360408301526130068189612cc7565b9050818103606083015261301a8188612cc7565b90506130296080830187612ed5565b61303660a0830186612c7f565b61304360c0830185612c7f565b61305060e0830184612c70565b9998505050505050505050565b600060808201905081810360008301526130778187612cc7565b90506130866020830186612ed5565b6130936040830185612ed5565b6130a06060830184612c70565b95945050505050565b600060208201905081810360008301526130c281612d31565b9050919050565b600060208201905081810360008301526130e281612d54565b9050919050565b6000602082019050818103600083015261310281612d77565b9050919050565b6000602082019050818103600083015261312281612d9a565b9050919050565b6000602082019050818103600083015261314281612dbd565b9050919050565b6000602082019050818103600083015261316281612de0565b9050919050565b6000602082019050818103600083015261318281612e03565b9050919050565b600060208201905081810360008301526131a281612e26565b9050919050565b600060208201905081810360008301526131c281612e49565b9050919050565b600060208201905081810360008301526131e281612e6c565b9050919050565b6000602082019050818103600083015261320281612e8f565b9050919050565b6000602082019050818103600083015261322281612eb2565b9050919050565b600060208201905061323e6000830184612ed5565b92915050565b600060a0820190506132596000830188612ed5565b818103602083015261326b8187612cc7565b905061327a6040830186612ed5565b6132876060830185612c70565b6132946080830184612c70565b9695505050505050565b60006132a86132b9565b90506132b482826134da565b919050565b6000604051905090565b600067ffffffffffffffff8211156132de576132dd613569565b5b6132e782613598565b9050602081019050919050565b600067ffffffffffffffff82111561330f5761330e613569565b5b61331882613598565b9050602081019050919050565b600081519050919050565b600081519050919050565b600082825260208201905092915050565b600082825260208201905092915050565b600081905092915050565b60006133738261345c565b915061337e8361345c565b9250827fffffffffffffffffffffffffffffffffffffffffffffffffffffffffffffffff038211156133b3576133b261350b565b5b828201905092915050565b60006133c98261345c565b91506133d48361345c565b9250828210156133e7576133e661350b565b5b828203905092915050565b60006133fd8261343c565b9050919050565b60008115159050919050565b60007fffffffff0000000000000000000000000000000000000000000000000000000082169050919050565b600073ffffffffffffffffffffffffffffffffffffffff82169050919050565b6000819050919050565b82818337600083830152505050565b60005b83811015613493578082015181840152602081019050613478565b838111156134a2576000848401525b50505050565b600060028204905060018216806134c057607f821691505b602082108114156134d4576134d361353a565b5b50919050565b6134e382613598565b810181811067ffffffffffffffff8211171561350257613501613569565b5b80604052505050565b7f4e487b7100000000000000000000000000000000000000000000000000000000600052601160045260246000fd5b7f4e487b7100000000000000000000000000000000000000000000000000000000600052602260045260246000fd5b7f4e487b7100000000000000000000000000000000000000000000000000000000600052604160045260246000fd5b6000601f19601f8301169050919050565b7f4552433732313a2063616c6c6572206973206e6f7420746f6b656e206f776e6560008201527f72206f7220617070726f76656400000000000000000000000000000000000000602082015250565b7f4552433732313a207472616e7366657220746f206e6f6e20455243373231526560008201527f63656976657220696d706c656d656e7465720000000000000000000000000000602082015250565b7f4552433732313a207472616e736665722066726f6d20696e636f72726563742060008201527f6f776e6572000000000000000000000000000000000000000000000000000000602082015250565b7f4552433732313a20746f6b656e20616c7265616479206d696e74656400000000600082015250565b7f4552433732313a207472616e7366657220746f20746865207a65726f2061646460008201527f7265737300000000000000000000000000000000000000000000000000000000602082015250565b7f4552433732313a20617070726f766520746f2063616c6c657200000000000000600082015250565b7f4552433732313a2061646472657373207a65726f206973206e6f74206120766160008201527f6c6964206f776e65720000000000000000000000000000000000000000000000602082015250565b7f43657274696669636174652068617320616c7265616479206265656e2061707060008201527f726f766564000000000000000000000000000000000000000000000000000000602082015250565b7f4552433732313a206d696e7420746f20746865207a65726f2061646472657373600082015250565b7f4552433732313a20696e76616c696420746f6b656e2049440000000000000000600082015250565b7f4552433732313a20617070726f76616c20746f2063757272656e74206f776e6560008201527f7200000000000000000000000000000000000000000000000000000000000000602082015250565b7f4552433732313a20617070726f76652063616c6c6572206973206e6f7420746f60008201527f6b656e206f776e6572206f7220617070726f76656420666f7220616c6c000000602082015250565b6138ce816133f2565b81146138d957600080fd5b50565b6138e581613404565b81146138f057600080fd5b50565b6138fc81613410565b811461390757600080fd5b50565b6139138161345c565b811461391e57600080fd5b5056fea2646970667358221220afde940f09e315f18769f5dd91e45d7b1c9b405a99ac2f7566ac4b44de577f9164736f6c63430008040033",
  "linkReferences": {},
  "deployedLinkReferences": {}
}