{
  "_format": "hh-sol-artifact-1",
  "contractName": "CertificateRegistry",
  "sourceName": "contracts/CertificateRegistry.sol",
  "abi": [
    {
      "anonymous": false,
      "inputs": [
        {
          "indexed": false,
          "internalType": "address",
          "name": "user",
          "type": "address"
        },
        {
          "indexed": false,
          "internalType": "uint256",
          "name": "serialNumber",
          "type": "uint256"
        }
      ],
      "name": "CertificateApproved",
      "type": "event"
    },
    {
      "inputs": [
        {
          "internalType": "string",
          "name": "name",
          "type": "string"
        },
        {
          "internalType": "string",
          "name": "uniName",
          "type": "string"
        },
        {
          "internalType": "string",
          "name": "course",
          "type": "string"
        },
        {
          "internalType": "string",
          "name": "month",
          "type": "string"
        },
        {
          "internalType": "uint256",
          "name": "year",
          "type": "uint256"
        },
        {
          "internalType": "bool",
          "name": "isApproved",
          "type": "bool"
        },
        {
          "internalType": "bool",
          "name": "isApplied",
          "type": "bool"
        },
        {
          "internalType": "address",
          "name": "user",
          "type": "address"
        }
      ],
      "name": "applyForCertificate",
      "outputs": [],
      "stateMutability": "nonpayable",
      "type": "function"
    },
    {
      "inputs": [
        {
          "internalType": "bool",
          "name": "isApproved",
          "type": "bool"
        },
        {
          "internalType": "address",
          "name": "user",
          "type": "address"
        }
      ],
      "name": "approveCertificate",
      "outputs": [],
      "stateMutability": "nonpayable",
      "type": "function"
    },
    {
      "inputs": [
        {
          "internalType": "address",
          "name": "",
          "type": "address"
        }
      ],
      "name": "certificates",
      "outputs": [
        {
          "internalType": "string",
          "name": "name",
          "type": "string"
        },
        {
          "internalType": "string",
          "name": "uniName",
          "type": "string"
        },
        {
          "internalType": "string",
          "name": "month",
          "type": "string"
        },
        {
          "internalType": "string",
          "name": "course",
          "type": "string"
        },
        {
          "internalType": "uint256",
          "name": "year",
          "type": "uint256"
        },
        {
          "internalType": "bool",
          "name": "isApproved",
          "type": "bool"
        },
        {
          "internalType": "bool",
          "name": "isApplied",
          "type": "bool"
        },
        {
          "internalType": "address",
          "name": "user",
          "type": "address"
        }
      ],
      "stateMutability": "view",
      "type": "function"
    },
    {
      "inputs": [],
      "name": "getCertificateInfo",
      "outputs": [
        {
          "internalType": "string",
          "name": "",
          "type": "string"
        },
        {
          "internalType": "string",
          "name": "",
          "type": "string"
        },
        {
          "internalType": "string",
          "name": "",
          "type": "string"
        },
        {
          "internalType": "string",
          "name": "",
          "type": "string"
        },
        {
          "internalType": "uint256",
          "name": "",
          "type": "uint256"
        },
        {
          "internalType": "bool",
          "name": "",
          "type": "bool"
        },
        {
          "internalType": "bool",
          "name": "",
          "type": "bool"
        },
        {
          "internalType": "address",
          "name": "",
          "type": "address"
        }
      ],
      "stateMutability": "view",
      "type": "function"
    }
  ],
  "bytecode": "0x608060405234801561001057600080fd5b50610f77806100206000396000f3fe608060405234801561001057600080fd5b506004361061004b5760003560e01c806216e52614610050578063bdf2a62114610087578063e53a5245146100ac578063fd6c8a54146100c8575b600080fd5b61006a60048036038101906100659190610a25565b6100e4565b60405161007e989796959493929190610c25565b60405180910390f35b61008f610386565b6040516100a3989796959493929190610c25565b60405180910390f35b6100c660048036038101906100c19190610a8a565b610639565b005b6100e260048036038101906100dd9190610a4e565b6107e2565b005b600060205280600052604060002060009150905080600001805461010790610ddb565b80601f016020809104026020016040519081016040528092919081815260200182805461013390610ddb565b80156101805780601f1061015557610100808354040283529160200191610180565b820191906000526020600020905b81548152906001019060200180831161016357829003601f168201915b50505050509080600101805461019590610ddb565b80601f01602080910402602001604051908101604052809291908181526020018280546101c190610ddb565b801561020e5780601f106101e35761010080835404028352916020019161020e565b820191906000526020600020905b8154815290600101906020018083116101f157829003601f168201915b50505050509080600201805461022390610ddb565b80601f016020809104026020016040519081016040528092919081815260200182805461024f90610ddb565b801561029c5780601f106102715761010080835404028352916020019161029c565b820191906000526020600020905b81548152906001019060200180831161027f57829003601f168201915b5050505050908060030180546102b190610ddb565b80601f01602080910402602001604051908101604052809291908181526020018280546102dd90610ddb565b801561032a5780601f106102ff5761010080835404028352916020019161032a565b820191906000526020600020905b81548152906001019060200180831161030d57829003601f168201915b5050505050908060040154908060050160009054906101000a900460ff16908060050160019054906101000a900460ff16908060050160029054906101000a900473ffffffffffffffffffffffffffffffffffffffff16905088565b60608060608060008060008060008060003373ffffffffffffffffffffffffffffffffffffffff1673ffffffffffffffffffffffffffffffffffffffff168152602001908152602001600020905080600001816001018260030183600201846004015460016000338780546103fa90610ddb565b80601f016020809104026020016040519081016040528092919081815260200182805461042690610ddb565b80156104735780601f1061044857610100808354040283529160200191610473565b820191906000526020600020905b81548152906001019060200180831161045657829003601f168201915b5050505050975086805461048690610ddb565b80601f01602080910402602001604051908101604052809291908181526020018280546104b290610ddb565b80156104ff5780601f106104d4576101008083540402835291602001916104ff565b820191906000526020600020905b8154815290600101906020018083116104e257829003601f168201915b5050505050965085805461051290610ddb565b80601f016020809104026020016040519081016040528092919081815260200182805461053e90610ddb565b801561058b5780601f106105605761010080835404028352916020019161058b565b820191906000526020600020905b81548152906001019060200180831161056e57829003601f168201915b5050505050955084805461059e90610ddb565b80601f01602080910402602001604051908101604052809291908181526020018280546105ca90610ddb565b80156106175780601f106105ec57610100808354040283529160200191610617565b820191906000526020600020905b8154815290600101906020018083116105fa57829003601f168201915b5050505050945098509850985098509850985098509850509091929394959697565b3390506040518061010001604052808981526020018881526020018781526020018681526020018581526020016000151581526020016001151581526020018273ffffffffffffffffffffffffffffffffffffffff168152506000803373ffffffffffffffffffffffffffffffffffffffff1673ffffffffffffffffffffffffffffffffffffffff16815260200190815260200160002060008201518160000190805190602001906106ec9291906108db565b5060208201518160010190805190602001906107099291906108db565b5060408201518160020190805190602001906107269291906108db565b5060608201518160030190805190602001906107439291906108db565b506080820151816004015560a08201518160050160006101000a81548160ff02191690831515021790555060c08201518160050160016101000a81548160ff02191690831515021790555060e08201518160050160026101000a81548173ffffffffffffffffffffffffffffffffffffffff021916908373ffffffffffffffffffffffffffffffffffffffff1602179055509050505050505050505050565b60008060008373ffffffffffffffffffffffffffffffffffffffff1673ffffffffffffffffffffffffffffffffffffffff16815260200190815260200160002090508060050160009054906101000a900460ff1615610876576040517f08c379a000000000000000000000000000000000000000000000000000000000815260040161086d90610cbf565b60405180910390fd5b60018160050160006101000a81548160ff021916908315150217905550818160050160026101000a81548173ffffffffffffffffffffffffffffffffffffffff021916908373ffffffffffffffffffffffffffffffffffffffff160217905550505050565b8280546108e790610ddb565b90600052602060002090601f0160209004810192826109095760008555610950565b82601f1061092257805160ff1916838001178555610950565b82800160010185558215610950579182015b8281111561094f578251825591602001919060010190610934565b5b50905061095d9190610961565b5090565b5b8082111561097a576000816000905550600101610962565b5090565b600061099161098c84610d04565b610cdf565b9050828152602081018484840111156109a957600080fd5b6109b4848285610d99565b509392505050565b6000813590506109cb81610efc565b92915050565b6000813590506109e081610f13565b92915050565b600082601f8301126109f757600080fd5b8135610a0784826020860161097e565b91505092915050565b600081359050610a1f81610f2a565b92915050565b600060208284031215610a3757600080fd5b6000610a45848285016109bc565b91505092915050565b60008060408385031215610a6157600080fd5b6000610a6f858286016109d1565b9250506020610a80858286016109bc565b9150509250929050565b600080600080600080600080610100898b031215610aa757600080fd5b600089013567ffffffffffffffff811115610ac157600080fd5b610acd8b828c016109e6565b985050602089013567ffffffffffffffff811115610aea57600080fd5b610af68b828c016109e6565b975050604089013567ffffffffffffffff811115610b1357600080fd5b610b1f8b828c016109e6565b965050606089013567ffffffffffffffff811115610b3c57600080fd5b610b488b828c016109e6565b9550506080610b598b828c01610a10565b94505060a0610b6a8b828c016109d1565b93505060c0610b7b8b828c016109d1565b92505060e0610b8c8b828c016109bc565b9150509295985092959890939650565b610ba581610d51565b82525050565b610bb481610d63565b82525050565b6000610bc582610d35565b610bcf8185610d40565b9350610bdf818560208601610da8565b610be881610e9c565b840191505092915050565b6000610c00602583610d40565b9150610c0b82610ead565b604082019050919050565b610c1f81610d8f565b82525050565b6000610100820190508181036000830152610c40818b610bba565b90508181036020830152610c54818a610bba565b90508181036040830152610c688189610bba565b90508181036060830152610c7c8188610bba565b9050610c8b6080830187610c16565b610c9860a0830186610bab565b610ca560c0830185610bab565b610cb260e0830184610b9c565b9998505050505050505050565b60006020820190508181036000830152610cd881610bf3565b9050919050565b6000610ce9610cfa565b9050610cf58282610e0d565b919050565b6000604051905090565b600067ffffffffffffffff821115610d1f57610d1e610e6d565b5b610d2882610e9c565b9050602081019050919050565b600081519050919050565b600082825260208201905092915050565b6000610d5c82610d6f565b9050919050565b60008115159050919050565b600073ffffffffffffffffffffffffffffffffffffffff82169050919050565b6000819050919050565b82818337600083830152505050565b60005b83811015610dc6578082015181840152602081019050610dab565b83811115610dd5576000848401525b50505050565b60006002820490506001821680610df357607f821691505b60208210811415610e0757610e06610e3e565b5b50919050565b610e1682610e9c565b810181811067ffffffffffffffff82111715610e3557610e34610e6d565b5b80604052505050565b7f4e487b7100000000000000000000000000000000000000000000000000000000600052602260045260246000fd5b7f4e487b7100000000000000000000000000000000000000000000000000000000600052604160045260246000fd5b6000601f19601f8301169050919050565b7f43657274696669636174652068617320616c7265616479206265656e2061707060008201527f726f766564000000000000000000000000000000000000000000000000000000602082015250565b610f0581610d51565b8114610f1057600080fd5b50565b610f1c81610d63565b8114610f2757600080fd5b50565b610f3381610d8f565b8114610f3e57600080fd5b5056fea26469706673582212205afb67e4bf6069c0710a61fcc0b876de6853b3527c87b7b4dc853d609347ca2064736f6c63430008040033",
  "linkReferences": {},
  "deployedLinkReferences": {}
}