{
  "_format": "hh-sol-artifact-1",
  "contractName": "CertificateRegistry",
  "sourceName": "contracts/CertificateRegistry.sol",
  "abi": [
    {
      "anonymous": false,
      "inputs": [
        {
          "indexed": false,
          "internalType": "address",
          "name": "user",
          "type": "address"
        },
        {
          "indexed": false,
          "internalType": "uint256",
          "name": "serialNumber",
          "type": "uint256"
        }
      ],
      "name": "CertificateApproved",
      "type": "event"
    },
    {
      "inputs": [
        {
          "internalType": "string",
          "name": "name",
          "type": "string"
        },
        {
          "internalType": "string",
          "name": "uniName",
          "type": "string"
        },
        {
          "internalType": "string",
          "name": "course",
          "type": "string"
        },
        {
          "internalType": "string",
          "name": "month",
          "type": "string"
        },
        {
          "internalType": "uint256",
          "name": "year",
          "type": "uint256"
        },
        {
          "internalType": "bool",
          "name": "isApproved",
          "type": "bool"
        },
        {
          "internalType": "bool",
          "name": "isApplied",
          "type": "bool"
        },
        {
          "internalType": "address",
          "name": "user",
          "type": "address"
        }
      ],
      "name": "applyForCertificate",
      "outputs": [],
      "stateMutability": "nonpayable",
      "type": "function"
    },
    {
      "inputs": [
        {
          "internalType": "bool",
          "name": "isApproved",
          "type": "bool"
        },
        {
          "internalType": "address",
          "name": "user",
          "type": "address"
        }
      ],
      "name": "approveCertificate",
      "outputs": [],
      "stateMutability": "nonpayable",
      "type": "function"
    },
    {
      "inputs": [
        {
          "internalType": "address",
          "name": "",
          "type": "address"
        }
      ],
      "name": "certificates",
      "outputs": [
        {
          "internalType": "string",
          "name": "name",
          "type": "string"
        },
        {
          "internalType": "string",
          "name": "uniName",
          "type": "string"
        },
        {
          "internalType": "string",
          "name": "month",
          "type": "string"
        },
        {
          "internalType": "string",
          "name": "course",
          "type": "string"
        },
        {
          "internalType": "uint256",
          "name": "year",
          "type": "uint256"
        },
        {
          "internalType": "bool",
          "name": "isApproved",
          "type": "bool"
        },
        {
          "internalType": "bool",
          "name": "isApplied",
          "type": "bool"
        },
        {
          "internalType": "address",
          "name": "user",
          "type": "address"
        }
      ],
      "stateMutability": "view",
      "type": "function"
    },
    {
      "inputs": [],
      "name": "getCertificateInfo",
      "outputs": [
        {
          "internalType": "string",
          "name": "",
          "type": "string"
        },
        {
          "internalType": "string",
          "name": "",
          "type": "string"
        },
        {
          "internalType": "string",
          "name": "",
          "type": "string"
        },
        {
          "internalType": "string",
          "name": "",
          "type": "string"
        },
        {
          "internalType": "uint256",
          "name": "",
          "type": "uint256"
        },
        {
          "internalType": "bool",
          "name": "",
          "type": "bool"
        },
        {
          "internalType": "bool",
          "name": "",
          "type": "bool"
        },
        {
          "internalType": "address",
          "name": "",
          "type": "address"
        }
      ],
      "stateMutability": "view",
      "type": "function"
    }
  ],
  "bytecode": "0x608060405234801561001057600080fd5b5061105a806100206000396000f3fe608060405234801561001057600080fd5b506004361061004b5760003560e01c806216e52614610050578063bdf2a62114610087578063e53a5245146100ac578063fd6c8a54146100c8575b600080fd5b61006a60048036038101906100659190610a76565b6100e4565b60405161007e989796959493929190610c99565b60405180910390f35b61008f610386565b6040516100a3989796959493929190610c99565b60405180910390f35b6100c660048036038101906100c19190610adb565b61068a565b005b6100e260048036038101906100dd9190610a9f565b610833565b005b600060205280600052604060002060009150905080600001805461010790610e6f565b80601f016020809104026020016040519081016040528092919081815260200182805461013390610e6f565b80156101805780601f1061015557610100808354040283529160200191610180565b820191906000526020600020905b81548152906001019060200180831161016357829003601f168201915b50505050509080600101805461019590610e6f565b80601f01602080910402602001604051908101604052809291908181526020018280546101c190610e6f565b801561020e5780601f106101e35761010080835404028352916020019161020e565b820191906000526020600020905b8154815290600101906020018083116101f157829003601f168201915b50505050509080600201805461022390610e6f565b80601f016020809104026020016040519081016040528092919081815260200182805461024f90610e6f565b801561029c5780601f106102715761010080835404028352916020019161029c565b820191906000526020600020905b81548152906001019060200180831161027f57829003601f168201915b5050505050908060030180546102b190610e6f565b80601f01602080910402602001604051908101604052809291908181526020018280546102dd90610e6f565b801561032a5780601f106102ff5761010080835404028352916020019161032a565b820191906000526020600020905b81548152906001019060200180831161030d57829003601f168201915b5050505050908060040154908060050160009054906101000a900460ff16908060050160019054906101000a900460ff16908060050160029054906101000a900473ffffffffffffffffffffffffffffffffffffffff16905088565b60608060608060008060008060008060003373ffffffffffffffffffffffffffffffffffffffff1673ffffffffffffffffffffffffffffffffffffffff16815260200190815260200160002090508060050160009054906101000a900460ff16610425576040517f08c379a000000000000000000000000000000000000000000000000000000000815260040161041c90610d53565b60405180910390fd5b806000018160010182600301836002018460040154600160003387805461044b90610e6f565b80601f016020809104026020016040519081016040528092919081815260200182805461047790610e6f565b80156104c45780601f10610499576101008083540402835291602001916104c4565b820191906000526020600020905b8154815290600101906020018083116104a757829003601f168201915b505050505097508680546104d790610e6f565b80601f016020809104026020016040519081016040528092919081815260200182805461050390610e6f565b80156105505780601f1061052557610100808354040283529160200191610550565b820191906000526020600020905b81548152906001019060200180831161053357829003601f168201915b5050505050965085805461056390610e6f565b80601f016020809104026020016040519081016040528092919081815260200182805461058f90610e6f565b80156105dc5780601f106105b1576101008083540402835291602001916105dc565b820191906000526020600020905b8154815290600101906020018083116105bf57829003601f168201915b505050505095508480546105ef90610e6f565b80601f016020809104026020016040519081016040528092919081815260200182805461061b90610e6f565b80156106685780601f1061063d57610100808354040283529160200191610668565b820191906000526020600020905b81548152906001019060200180831161064b57829003601f168201915b5050505050945098509850985098509850985098509850509091929394959697565b3390506040518061010001604052808981526020018881526020018781526020018681526020018581526020016000151581526020016001151581526020018273ffffffffffffffffffffffffffffffffffffffff168152506000803373ffffffffffffffffffffffffffffffffffffffff1673ffffffffffffffffffffffffffffffffffffffff168152602001908152602001600020600082015181600001908051906020019061073d92919061092c565b50602082015181600101908051906020019061075a92919061092c565b50604082015181600201908051906020019061077792919061092c565b50606082015181600301908051906020019061079492919061092c565b506080820151816004015560a08201518160050160006101000a81548160ff02191690831515021790555060c08201518160050160016101000a81548160ff02191690831515021790555060e08201518160050160026101000a81548173ffffffffffffffffffffffffffffffffffffffff021916908373ffffffffffffffffffffffffffffffffffffffff1602179055509050505050505050505050565b60008060008373ffffffffffffffffffffffffffffffffffffffff1673ffffffffffffffffffffffffffffffffffffffff16815260200190815260200160002090508060050160009054906101000a900460ff16156108c7576040517f08c379a00000000000000000000000000000000000000000000000000000000081526004016108be90610d33565b60405180910390fd5b60018160050160006101000a81548160ff021916908315150217905550818160050160026101000a81548173ffffffffffffffffffffffffffffffffffffffff021916908373ffffffffffffffffffffffffffffffffffffffff160217905550505050565b82805461093890610e6f565b90600052602060002090601f01602090048101928261095a57600085556109a1565b82601f1061097357805160ff19168380011785556109a1565b828001600101855582156109a1579182015b828111156109a0578251825591602001919060010190610985565b5b5090506109ae91906109b2565b5090565b5b808211156109cb5760008160009055506001016109b3565b5090565b60006109e26109dd84610d98565b610d73565b9050828152602081018484840111156109fa57600080fd5b610a05848285610e2d565b509392505050565b600081359050610a1c81610fdf565b92915050565b600081359050610a3181610ff6565b92915050565b600082601f830112610a4857600080fd5b8135610a588482602086016109cf565b91505092915050565b600081359050610a708161100d565b92915050565b600060208284031215610a8857600080fd5b6000610a9684828501610a0d565b91505092915050565b60008060408385031215610ab257600080fd5b6000610ac085828601610a22565b9250506020610ad185828601610a0d565b9150509250929050565b600080600080600080600080610100898b031215610af857600080fd5b600089013567ffffffffffffffff811115610b1257600080fd5b610b1e8b828c01610a37565b985050602089013567ffffffffffffffff811115610b3b57600080fd5b610b478b828c01610a37565b975050604089013567ffffffffffffffff811115610b6457600080fd5b610b708b828c01610a37565b965050606089013567ffffffffffffffff811115610b8d57600080fd5b610b998b828c01610a37565b9550506080610baa8b828c01610a61565b94505060a0610bbb8b828c01610a22565b93505060c0610bcc8b828c01610a22565b92505060e0610bdd8b828c01610a0d565b9150509295985092959890939650565b610bf681610de5565b82525050565b610c0581610df7565b82525050565b6000610c1682610dc9565b610c208185610dd4565b9350610c30818560208601610e3c565b610c3981610f30565b840191505092915050565b6000610c51602583610dd4565b9150610c5c82610f41565b604082019050919050565b6000610c74602583610dd4565b9150610c7f82610f90565b604082019050919050565b610c9381610e23565b82525050565b6000610100820190508181036000830152610cb4818b610c0b565b90508181036020830152610cc8818a610c0b565b90508181036040830152610cdc8189610c0b565b90508181036060830152610cf08188610c0b565b9050610cff6080830187610c8a565b610d0c60a0830186610bfc565b610d1960c0830185610bfc565b610d2660e0830184610bed565b9998505050505050505050565b60006020820190508181036000830152610d4c81610c44565b9050919050565b60006020820190508181036000830152610d6c81610c67565b9050919050565b6000610d7d610d8e565b9050610d898282610ea1565b919050565b6000604051905090565b600067ffffffffffffffff821115610db357610db2610f01565b5b610dbc82610f30565b9050602081019050919050565b600081519050919050565b600082825260208201905092915050565b6000610df082610e03565b9050919050565b60008115159050919050565b600073ffffffffffffffffffffffffffffffffffffffff82169050919050565b6000819050919050565b82818337600083830152505050565b60005b83811015610e5a578082015181840152602081019050610e3f565b83811115610e69576000848401525b50505050565b60006002820490506001821680610e8757607f821691505b60208210811415610e9b57610e9a610ed2565b5b50919050565b610eaa82610f30565b810181811067ffffffffffffffff82111715610ec957610ec8610f01565b5b80604052505050565b7f4e487b7100000000000000000000000000000000000000000000000000000000600052602260045260246000fd5b7f4e487b7100000000000000000000000000000000000000000000000000000000600052604160045260246000fd5b6000601f19601f8301169050919050565b7f43657274696669636174652068617320616c7265616479206265656e2061707060008201527f726f766564000000000000000000000000000000000000000000000000000000602082015250565b7f436572746966696361746520686173206e6f74206265656e20617070726f766560008201527f6420796574000000000000000000000000000000000000000000000000000000602082015250565b610fe881610de5565b8114610ff357600080fd5b50565b610fff81610df7565b811461100a57600080fd5b50565b61101681610e23565b811461102157600080fd5b5056fea26469706673582212206816a84ef5bef9ddcb64181a93878ca4b9711e8a7cf2cbc61c54f87885745f5164736f6c63430008040033",
  "linkReferences": {},
  "deployedLinkReferences": {}
}